{
  "contractName": "DappTokenSale",
  "abi": [
    {
      "inputs": [
        {
          "internalType": "contract DappToken",
          "name": "_tokenContract",
          "type": "address"
        },
        {
          "internalType": "uint256",
          "name": "_tokenPrice",
          "type": "uint256"
        }
      ],
      "payable": false,
      "stateMutability": "nonpayable",
      "type": "constructor"
    },
    {
      "anonymous": false,
      "inputs": [
        {
          "indexed": false,
          "internalType": "address",
          "name": "_buyer",
          "type": "address"
        },
        {
          "indexed": false,
          "internalType": "uint256",
          "name": "_amount",
          "type": "uint256"
        }
      ],
      "name": "Sell",
      "type": "event"
    },
    {
      "constant": true,
      "inputs": [],
      "name": "getTokenContract",
      "outputs": [
        {
          "internalType": "contract DappToken",
          "name": "",
          "type": "address"
        }
      ],
      "payable": false,
      "stateMutability": "view",
      "type": "function"
    },
    {
      "constant": true,
      "inputs": [],
      "name": "getAdminAccount",
      "outputs": [
        {
          "internalType": "address",
          "name": "",
          "type": "address"
        }
      ],
      "payable": false,
      "stateMutability": "view",
      "type": "function"
    },
    {
      "constant": true,
      "inputs": [],
      "name": "getTokenPrice",
      "outputs": [
        {
          "internalType": "uint256",
          "name": "",
          "type": "uint256"
        }
      ],
      "payable": false,
      "stateMutability": "view",
      "type": "function"
    },
    {
      "constant": true,
      "inputs": [],
      "name": "getTokensSold",
      "outputs": [
        {
          "internalType": "uint256",
          "name": "",
          "type": "uint256"
        }
      ],
      "payable": false,
      "stateMutability": "view",
      "type": "function"
    },
    {
      "constant": false,
      "inputs": [
        {
          "internalType": "uint256",
          "name": "_numberOfTokens",
          "type": "uint256"
        }
      ],
      "name": "buyTokens",
      "outputs": [],
      "payable": true,
      "stateMutability": "payable",
      "type": "function"
    },
    {
      "constant": false,
      "inputs": [],
      "name": "endSale",
      "outputs": [],
      "payable": false,
      "stateMutability": "nonpayable",
      "type": "function"
    }
  ],
  "bytecode": "0x608060405234801561001057600080fd5b506040516108413803806108418339818101604052604081101561003357600080fd5b810190808051906020019092919080519060200190929190505050336000806101000a81548173ffffffffffffffffffffffffffffffffffffffff021916908373ffffffffffffffffffffffffffffffffffffffff16021790555081600160006101000a81548173ffffffffffffffffffffffffffffffffffffffff021916908373ffffffffffffffffffffffffffffffffffffffff1602179055508060028190555060006003819055505050610752806100ef6000396000f3fe6080604052600436106100555760003560e01c806328b7bede1461005a5780633610724e146100b1578063380d831b146100df5780634b94f50e146100f65780635cbe1b2b14610121578063ee7c0db014610178575b600080fd5b34801561006657600080fd5b5061006f6101a3565b604051808273ffffffffffffffffffffffffffffffffffffffff1673ffffffffffffffffffffffffffffffffffffffff16815260200191505060405180910390f35b6100dd600480360360208110156100c757600080fd5b81019080803590602001909291905050506101cd565b005b3480156100eb57600080fd5b506100f4610435565b005b34801561010257600080fd5b5061010b6106b4565b6040518082815260200191505060405180910390f35b34801561012d57600080fd5b506101366106be565b604051808273ffffffffffffffffffffffffffffffffffffffff1673ffffffffffffffffffffffffffffffffffffffff16815260200191505060405180910390f35b34801561018457600080fd5b5061018d6106e7565b6040518082815260200191505060405180910390f35b6000600160009054906101000a900473ffffffffffffffffffffffffffffffffffffffff16905090565b6101d9816002546106f1565b34146101e457600080fd5b80600160009054906101000a900473ffffffffffffffffffffffffffffffffffffffff1673ffffffffffffffffffffffffffffffffffffffff166370a08231306040518263ffffffff1660e01b8152600401808273ffffffffffffffffffffffffffffffffffffffff1673ffffffffffffffffffffffffffffffffffffffff16815260200191505060206040518083038186803b15801561028457600080fd5b505afa158015610298573d6000803e3d6000fd5b505050506040513d60208110156102ae57600080fd5b810190808051906020019092919050505010156102ca57600080fd5b600160009054906101000a900473ffffffffffffffffffffffffffffffffffffffff1673ffffffffffffffffffffffffffffffffffffffff1663990dc9db33836040518363ffffffff1660e01b8152600401808373ffffffffffffffffffffffffffffffffffffffff1673ffffffffffffffffffffffffffffffffffffffff16815260200182815260200192505050602060405180830381600087803b15801561037357600080fd5b505af1158015610387573d6000803e3d6000fd5b505050506040513d602081101561039d57600080fd5b81019080805190602001909291905050506103b757600080fd5b806003600082825401925050819055507f5e5e995ce3133561afceaa51a9a154d5db228cd7525d34df5185582c18d3df093382604051808373ffffffffffffffffffffffffffffffffffffffff1673ffffffffffffffffffffffffffffffffffffffff1681526020018281526020019250505060405180910390a150565b6000809054906101000a900473ffffffffffffffffffffffffffffffffffffffff1673ffffffffffffffffffffffffffffffffffffffff163373ffffffffffffffffffffffffffffffffffffffff161461048e57600080fd5b600160009054906101000a900473ffffffffffffffffffffffffffffffffffffffff1673ffffffffffffffffffffffffffffffffffffffff1663990dc9db6000809054906101000a900473ffffffffffffffffffffffffffffffffffffffff16600160009054906101000a900473ffffffffffffffffffffffffffffffffffffffff1673ffffffffffffffffffffffffffffffffffffffff166370a08231306040518263ffffffff1660e01b8152600401808273ffffffffffffffffffffffffffffffffffffffff1673ffffffffffffffffffffffffffffffffffffffff16815260200191505060206040518083038186803b15801561058d57600080fd5b505afa1580156105a1573d6000803e3d6000fd5b505050506040513d60208110156105b757600080fd5b81019080805190602001909291905050506040518363ffffffff1660e01b8152600401808373ffffffffffffffffffffffffffffffffffffffff1673ffffffffffffffffffffffffffffffffffffffff16815260200182815260200192505050602060405180830381600087803b15801561063157600080fd5b505af1158015610645573d6000803e3d6000fd5b505050506040513d602081101561065b57600080fd5b810190808051906020019092919050505061067557600080fd5b60008060009054906101000a900473ffffffffffffffffffffffffffffffffffffffff1690508073ffffffffffffffffffffffffffffffffffffffff16ff5b6000600254905090565b60008060009054906101000a900473ffffffffffffffffffffffffffffffffffffffff16905090565b6000600354905090565b60008082148061070e575082828385029250828161070b57fe5b04145b61071757600080fd5b9291505056fea265627a7a723158203ec36b54612f1617fc1f219c668b6a0a4323b8e675ec6b58ee6faa3f7fc2bfff64736f6c63430005100032",
  "source": "pragma solidity 0.5.16;\n\nimport \"./DappToken.sol\";\n\n\ncontract DappTokenSale {\n\n    address private adminAccount;\n    DappToken private tokenContract;\n    uint256 private tokenPrice;\n    uint256 private tokensSold;\n\n    event Sell(\n        address _buyer,\n        uint256 _amount\n    );\n\n    constructor (DappToken _tokenContract, uint256 _tokenPrice) public {\n        // Assign an admin\n        adminAccount = msg.sender;\n\n        // Token contract\n        tokenContract = _tokenContract;\n\n        // Token price\n        tokenPrice = _tokenPrice;\n\n        tokensSold = 0;\n    }\n\n    // Returns the token contract\n    function getTokenContract() public view returns (DappToken) {\n        return tokenContract;\n    }\n\n    // Returns the address of admin accounts\n    function getAdminAccount() public view returns (address) {\n        return adminAccount;\n    }\n\n    // Returns the token price\n    function getTokenPrice() public view returns (uint) {\n        return tokenPrice;\n    }\n\n    // Returns the number of tokens sold\n    function getTokensSold() public view returns (uint256) {\n        return tokensSold;\n    }\n\n    function buyTokens(uint256 _numberOfTokens) public payable {\n        // Require that value is equal to tokens\n        require(msg.value == multiply(_numberOfTokens, tokenPrice));\n\n        // Require that the contract has enough tokens\n        require(tokenContract.balanceOf(address(this)) >= _numberOfTokens);\n\n        // Require that a transfer is successful\n        require(tokenContract.transferFunds(msg.sender, _numberOfTokens));\n\n        // Keep track of tokens sold\n        tokensSold += _numberOfTokens;\n\n        // Trigger sell event\n        emit Sell(msg.sender, _numberOfTokens);\n    }\n\n    function endSale() public {\n        // Require admin\n        require(msg.sender == adminAccount);\n\n        // Transfer remaining dapp tokens to admin\n        require(tokenContract.transferFunds(adminAccount, tokenContract.balanceOf(address(this))));\n\n        // Destroy contract\n        address payable _adminAcc = address(uint160(adminAccount));\n        selfdestruct(_adminAcc);\n    }\n\n    // Calculations using DS-Math https://github.com/dapphub/ds-math\n    function multiply(uint x, uint y) internal pure returns(uint z) {\n        require(y == 0 || (z = x * y) / y == x);\n    }\n}\n",
  "sourcePath": "/run/media/dna2machine/DATA/DNA2MACHINE/Code/Solidity/ERC20-Udemy-App/contracts/DappTokenSale.sol",
  "compiler": {
    "name": "solc",
    "version": "0.5.16+commit.9c3226ce.Emscripten.clang"
  },
  "schemaVersion": "3.3.4",
  "updatedAt": "2021-03-01T23:17:19.776Z",
  "networkType": "ethereum",
  "devdoc": {
    "methods": {}
  },
  "userdoc": {
    "methods": {}
  }
}