{
  "contractName": "DappToken",
  "abi": [
    {
      "inputs": [],
      "payable": false,
      "stateMutability": "nonpayable",
      "type": "constructor"
    },
    {
      "constant": true,
      "inputs": [],
      "name": "totalSupply",
      "outputs": [
        {
          "internalType": "uint256",
          "name": "",
          "type": "uint256"
        }
      ],
      "payable": false,
      "stateMutability": "view",
      "type": "function"
    }
  ],
  "bytecode": "0x6080604052348015600f57600080fd5b50620f42406000819055506084806100286000396000f3fe6080604052348015600f57600080fd5b506004361060285760003560e01c806318160ddd14602d575b600080fd5b60336049565b6040518082815260200191505060405180910390f35b6000548156fea265627a7a7231582027563137e8f3f946bd7462b8da6617a37571d3c28e1d17e31ded9cc4c208fbe064736f6c63430005100032",
  "source": "pragma solidity >=0.4.2;\n\ncontract DappToken {\n  // Constructor\n  uint256 public totalSupply;\n\n  constructor () public {\n    totalSupply = 1000000;\n  }\n\n  // Set the total number of tokens\n\n  // Read the total number of tokens\n}\n",
  "sourcePath": "/run/media/dna2machine/DATA/DNA2MACHINE/Code/Solidity/ERC20-Udemy-App/contracts/DappToken.sol",
  "compiler": {
    "name": "solc",
    "version": "0.5.16+commit.9c3226ce.Emscripten.clang"
  },
  "schemaVersion": "3.3.4",
  "updatedAt": "2021-02-26T18:42:11.194Z",
  "networkType": "ethereum",
  "devdoc": {
    "methods": {}
  },
  "userdoc": {
    "methods": {}
  }
}